:020000041000EA
:4000000000400208230100100D00000085010010000000000000000000000000000000000000000000000000000000008101001000000000000000008101001081010010E9
:400040008101001081010010810100108101001081010010810100108101001081010010810100108101001081010010810100108101001081010010810100108101001060
:400080008101001081010010810100108101001081010010810100108101001081010010810100108101001081010010810100108101001081010010810100108101001020
:4000C00010B5064C2378002B07D1054B002B02D0044800E000BF0123237010BD3406000800000000702F0010084B10B5002B03D00749084800E000BF07480368002B00D193
:4001000010BD064B002BFBD09847F9E70000000038060008702F0010E4000008000000007047FFF7FDFF72B60F4C104DAC4209DA21686268A368043B02DBC858D050FAE716
:400140000C34F3E70A490B4A0020521A02DD043A8850FCDC084809490860BFF34F8F00F0FFF800F01DF8FEE7742F00108C2F0010340600080C0800080000000808ED00E040
:40018000FEE7FEE700B504207146084202D0EFF3098001E0EFF30880043001F0D7FAFEE710B562B6014800F061F9FEE70000081010B5002001F046F810BDC04670B55F4917
:4001C000E0239B00CB580F2213401A00D0329200525807210A4002D0042A02D00FE0584811E01A00C0329200544952581F210A40112A06D0132A04D0FA20C00103E05148B6
:4002000001E080200002002B36D14C4BB222D2009A5801211140B125ED005A59120F032422405B591B0F1C4207D0444C63591B0F03242340012B02D102E0012300E000232C
:40024000002B01D0002901D1032A4BD13B4BB022D2009D58AD03AD0B3B495958C904C90C9C58240E01231C40013401F0E5FD6843210001F0E1FD35E0012B33D12F4BC822EE
:40028000D2009A5801251540C024E4001A59120F03210A401B591B0F194207D027490B591B0F03210B40012B02D102E0012300E00023002B01D0002D01D1032A12D11F4D79
:4002C000C022D200AB587F210B40A958090A1F263140AC58240C3440584301F0ADFD210001F0AAFDE0239B00144AD3581B0903221340D840154C2060154B1D692D0AFC32F4
:40030000154001351969090E013101F095FD6060290001F091FD0500A060E0600D4BC0180D4901F089FD20740C4BE818FA21890001F082FD6061C003A06170BD0000264023
:4003400000127A0000366E0184050000C0000008000021403F420F0040420F00E703000010B5284801F062FD274CB022D200A3585B005B08A350E0218900635830208343EC
:40038000635080235B04A350204A214BE250A02292010433E250FF221E4BE25001F034FDC0225200A35801218B43A35000F020FAFFF704FFB0235B055B78002B04D0B02304
:4003C0005B055B78DBB200E02123212B03D1124B0022DA605A60114C22008021042000F0D7FC2000103000F06BFD0D4B1A685123D35C002B02D00B4800F0D8FD00F0A0FBAA
:4004000010BDC046B82E00100000264001000200840500008C050000E00023405006000808080008B01F00108023024AD3580320184070470000214010B501F01AFA084910
:4004400080228C58074B2340074C23438B508823034AD358DB06FAD501F00FFA10BDC04600002140FCFF00000100FA0570B50500830504D0E821FF310F4801F039F901F087
:40048000F8F90400FFF7D0FF032801D1FFF7D4FF0A4AB0239B00D55080215058084B03400848034353508823044AD358DB06FAD5200001F0E2F970BDE41F0010000021405C
:4004C000FCFF00000300FA05FEE7C04603220C4B1A6080231B060B4A1360822149000A4A1160F439094A116009490A4A11600A4A13600122094B1A60094A0A4B1A60704748
:400500001820314000001041800010418800104120410000A000104100001D4100031D4101001180000E1F4110B50A00002101F018FD10BD10B501F00BFD10BD30B587B09C
:400540009A49A022D2008B58032083438B50984A116808688823CB58C31818689549084018601368186884241B59C01803681B021B0A80256D042B43036010680568035907
:40058000EB1818680140196013683E229A5C002A06D08648E02189004258753CA24342503E229A5C002A06D08048E021890042583024A24342503E229B5C002B07D07B49E9
:4005C000E02292008B588020000603438B500021012000F069FE0021022000F065FE0021032000F061FE0021042000F05DFE0021002000F059FE01A86F4903000A0032CA79
:4006000032C312CA12C300F07DFE002802D00420FFF75AFF6549694A8B588020000603438B50674800F02AFF002802D00420FFF74BFF5E4C634BE158634A0A40E250E15818
:40064000624A0A40E250E25880252D062A43E250043BE1585E4A0A40E250E1585D4A0A40802189010A43E250E258802109020A43E250594A1168594B0B40802149000B4389
:400680001360002001F036FB554BE2581543E550E158012291430A43E2506421002001F06DF8434B1B683F229A5C052A03D900214C4A986881509A6874215B5AD2181168CA
:4006C0003C4B0B408021C9000B431360384B1B687322985C703A8240100070229A5C72241C5DA2400243802000060243986842509A6852583F229A5C132A06D970229A5C10
:4007000001210A403849986842509A6874215B5AD2185168274B0B408021C9000B435360234B1B6873229A5C0320904070229A5C72241C5D1500A5402843012422400243EC
:40074000802000060243986842509A6852583F229A5C392A06D970229A5C02210A402349986842509A6874215B5AD2189168114B0B408021C9000B4393600D4B1A687323D3
:40078000D35C032098407023D35C7224145D1D00A54028430224234003438020000603439068435093685B5807B030BD0000264008080008FF00FFFFFC1F0010087F000014
:4007C000400D030004050000FEFCFFFFFFFF00FFFFF0FFFFFF8FFFFF00002740FFFCFFFF0C050000140C00004C0C0000E40C000070B58AB09621002000F0C0FF00F096FFEF
:40080000002814D100F082FFC0235B005E4AD358DB0705D411005D4A8B585B005B088B5059495A4A8B588020000603438B50012001F0F8F9564A516C564B0B40E82189016B
:400840000B435364536C1B0AFF2213403A2B07D14F4A516C504B0B40E82189010B435364002300224D494E4801F062FA012300224C494D4801F05CFA002300224B494C4828
:4008800001F056FA012300228021C905322001F04FFAFFF753FE474A474B1A6000240CE0620012195300454AD318198B9A8AD88A00041043FFF738FE01340B2CF0D9002462
:4008C0000AE06200121993003C4AD3185A6E196ED86DFFF72FFE0134112CF2D9384A1368812149000B43136001AC24220021200001F037FB6023E3602100324800F028F917
:40090000314D22002B00343343CB43C243CB43C243CB43C221002D4800F01AF922002B00583343CB43C243CB43C243CB43C22100274800F00DF922002B007C3323CB23C24D
:4009400023CB23C223CB23C22100224800F000F924220021200001F004FB0123019321001D4800F0F5F822001C4B203323CB23C223CB23C223CB23C22100194800F0E8F824
:40098000FFF7A4FD0AB070BD000026400C05000000002740FF00FFFFFFC5FFDF0F0E0040050E0000000600402A060000070E0040150E00000300FA05F0012140FC1F00105F
:4009C0000079344080003240FC200010800232400003324080043240000532407C21001080063240214B984230D00ED8402831D004D800281FD010282AD031E080282BD003
:400A000080235B00984229D02AE0194B984229D007D8A0231B0698420DD0164B984212D01EE0154B98420AD0144B984209D0144B984215D101E0002016E0124814E012482B
:400A400012E0124810E0A020C0030DE007480BE00F4809E00F4807E00F4805E0034803E00E4801E0A420C0037047C04606005200010000F0090000A0040000F0050000F052
:400A8000030000F0010052000200520003005200010050000200500005005200FF00520070B5124B1A683123D35C002B04D1C421FF310F4800F01CFE0C4B1D682C00B42320
:400AC000EB582A6A944663441B68002B0BDB094B1868FFF787FF6B6801229A6063689B68002BFBD100E0044870BDC04608080008F02A0010E00700080200500010B50D4B06
:400B00001861002805D002230370FD33437000234380094B1B6850229A5C002A08D051229B5C002B04D04F3A0449002000F0F8FA10BDC046E0070008080800085D0100081C
:400B400010B502481430FFF7D9FF10BDE007000870B505000C0000285DD000295DD0FF230A689A4303D099212D4800F0C1FDFF2322699A4303D09A21294800F0B9FDA3685C
:400B80005B0D03D09B21264800F0B2FD63685B0A03D09C21224800F0ABFDE3695B0F03D09D211F4800F0A4FD236A5B0F03D09E211B4800F09DFD1B4A11688B69EB1ADB09FF
:400BC00049691B01CB18216829607D211068415C6918E06808607E211068415C6918206908607F211068415C6918606908607C211068415C6918A06808606168A9611168D2
:400C000080228A5CAD18A2692A60E2691A60226A5A60002002E0044800E0034870BDC046302B00100808000801005A0070B504000D000A4B1A68B423D3581B181B68002B4D
:400C40000ADA0B0C03D00649064800F051FD2D042D0C6560002000E0034870BD08080008D5020000B02B001001008A0070B505000C000368002B01DA002300E0084B002B97
:400C80000BD1EA60230C03D00649074800F030FD2404240CAC60002000E0014870BDC04601008A00BB020000B02B001070B505000C1E03D19921084800F01AFD074B1A6831
:400CC000B423D3585B191B68002B03DAEB682360002000E0024870BDF02B00100808000801008A0070B504000D00234B1A683123D35C834236D9002936D00B68DB0635D1D2
:400D00003123D35C984204D3C421FF311B4800F0EFFC194B1B681A6AB0215B5A5C431419174E34602B68DA080021686801F019F900212000FFF77AFF3468002D03D1114966
:400D40000E4800F0D5FC2A0000212000FFF78EFF00280DD10A4B18680021FFF767FF002808D108E0084806E0074804E0064802E0064800E0054870BD08080008B02B0010E9
:400D8000F80700089303000003018A0001018A0010B50400002A17D1002915D1124B1A683123D35C984204D3C421FF310F4800F09FFC0D4B1B681A6AB0215B5A5C431419D7
:400DC0000B4B1C6000200EE0002A09D0002909D0074B59609A60191D2000FFF783FF02E0044800E0034810BD08080008B02B0010F807000803018A00F0B583B00D001C4B31
:400E00001B68DC68236883422DD947097B01C01A012383401E00002903D100F02AFD019001E000230193124B18680368002B01DA002300E00F4B002B0ED16368BF00DF1976
:400E40003B68334203D0B3433B60002400E00A4C0021FFF7EBFE00E0084C002D04D1019800F00BFD00E0064C200003B0F0BDC046F807000801008A00020188000301880074
:400E800004018A000A4B1B68DA68136883420BD943095901401A0121814052689B009B580B4203D0034802E0034800E003487047F80700080101880004018A000001880017
:400EC000034B1B68002B01D1014B18607047C04604080008F0B5474680B404000F0090461E002D4B1B68002B03D1B5212B4800F0FFFB294B1B682C2060431C18FF221500A5
:400F000035402560330A13406360360CA660244B1A683123D35C9D4204D3C421FF31214800F0E6FB1E4B1A68B023D35A6B43116A8C466344236166683223D35C9E4204D389
:400F4000E021FF31174800F0D3FB154B1B681D6A80367601AD196561A668330C04D0FF214900104800F0C4FB330C03D00E490D4800F0BEFB3604330C1E43AE604346E36153
:400F800027620023A361069B002B02D000229B5EA38104BC9046F0BD04080008302C001008080008B02B0010FF010000F0B58FB0041E03D15221294800F09AFB6368032BA2
:400FC00003D95421254800F093FBE36A002B03D15821224800F08CFB236B002B03D159211E4800F085FB07AA1300210061C961C321C921C302AD290023001433C1CBC1C1E1
:4010000041CB41C10821535E0CAE3380144B1B6836215B5E07998C466344B370089B0D930B9B0A980096A26AE16AFFF753FF2B69E868002200920021FFF74CFF216B3000B7
:4010400000F0E8FA0023F25E002A05DB1F231A401E3B9340034A13600FB0F0BD302C00100808000800E100E0F8B505000F0016001C00002A03D1FD21224800F039FB224BDE
:401080001B68002B03D1FE211E4800F031FB1E4B1B682C2128004843181879435918012213004D68AB401B044568AA4015000269002A20D08F69002F1FD11268002A01DA08
:4010C000002200E0114A002A19D132681204120C134333600369DE6001238B614C6204692B0C03D00A490B4800F002FB2A04120CA260002004E0084802E0084800E0074853
:40110000F8BDC046302C00100408000801008A00BB020000B02B001004028A0007028A0070B504000D0016000F4B1B68002B04D1AF2149000D4800F0DBFA0B4B1B682C209D
:4011400060431C18236A002B04D1B1214900074800F0CEFAE369B34204D9236AB6009D51002000E0024870BD04080008302C00100A028A0070B582B00400002301930028D3
:4011800004D1D221FF312D4800F0B2FA2369002B04D1E9214900294800F0AAFA6369002B04D1D421FF31254800F0A2FA236A002B04D1EA214900214800F09AFA6269D56882
:4011C0002B0C24D01B041360136820691C4B1A68B423D358C3181B68002B18DA01A9FFF765FD00280ED1019803681E0CFF221340E269934207D29B00226AD358002B02D0D5
:40120000984700E0002631002069FFF70FFD2D042D0C0FD063691D601B68636A002B03D098470023636203E0A36A002B00D098470023A36163691B6802B070BD302C0010DB
:401240000808000810B50400084B1B68002B04D1B221FF31064800F04BFA044B1B682C2060431818FFF786FF10BDC04604080008302C001010B50400094B1B689B6CC340C8
:40128000DB0703D4BE21074800F032FA044B1B681B691034A402E3580F20184010BDC04608080008702C0010134B1A683C23D35C83421DD9042904D94B1EFF3B9BB2132B31
:4012C00018D8FF290CD91F2319400C4A0300C0339B009950D03080000423835000200AE007231940D0308000044BC150002002E0034800E0024870470808000800002640F3
:4013000001004A0070B5041E03D14A494A4800F0EFF9B023DB00494AD358002B00DA87E0474B22689A4203D94649434800F0E0F923689B039B0BE279002A02D0802252049D
:4013400000E000221343B022D2003C498B50A2883D4B9A4204D98C218900374800F0C8F922893A4B9A4203D93949334800F0C0F9A388DB04D90C23891B04364A13400B43D7
:40138000354A2E498B50A37A0F2B04D98E218900294800F0ADF9E37A0F2B03D92F49264800F0A6F9A289284B9A4203D92C49224800F09EF9A37A0F211940E27A1201FF230E
:4013C00013400B43A289120226490A401343A27B1207C02189050A401343B122D20017498B50A379042B03D91F49134800F080F9228A164B9A4204D9912189000E4800F03F
:4014000077F90E4819494558194B1D40A3791B02E022D20013402B4343504558154B1D40238A1B040B4A13402B434350002000E0114870BD1F020000B02C001000002640FD
:40144000FFFF030029020000FF1F0000FF010000310200000000FF0184050000390200003A02000000FF1F00430200008C050000FFF8FFFFFFFF00FE03004A0070B5050093
:401480003149324A8B588020000603438B502C0003E0012000F020F9013CB223DB002A4AD3585B0701D4002CF3D12749B122D2008858274B03408020800503438B50002D83
:4014C00001D0002C0CD02049B022D2008B588020000603438B5003E0012000F0FDF8013CB223DB00184AD358DB0701D4002CF3D1002D01D0002C08D01349B122D2008B586C
:40150000C020800503438B5013E00F4BB121C90058580F4A02408020800502435A5008395A58520052085A5008495A58520052085A50002D03D0002C03D0002002E000201B
:4015400000E0044870BDC046000026408C050000FFFFFFCF02004A0070B505000C001A4B1B6828229A5C012A15D1820807211000884327D19200AD1AED00FF20A8401B6839
:4015800020339A181168AC4023004B40184004004C40146016E03A229B5EDBB2994203D176210A4800F0A4F8074B1B681B680722154080221206154380229201944664441C
:4015C000A400E55070BDC04608080008382D001070B504000D000B4B9A680B4B9A420CD1002904D13821FF31084800F081F81034054BA400E058E55003E01034A400044BB6
:40160000E05870BD00ED00E000000008382D001000000010F0B5474680B482B0061E01914AD04368032B03D93221264800F060F80023F05E002804DBB178FFF78DFF00247E
:4016400000E0214C0023F15E7368002912DB88081E4FC0308000C55903221140C900FC3290468A4095439A01434613408B402B43C35116E089B20F220A40083A92080632C6
:40168000920013481018476803221140C900FF252A008A4097439A012B0013408B403B4343600B4B9A680B4B9A4206D10023F05E0199FFF78DFF00E0034C200002B004BC81
:4016C0009046F0BD382D00100100560000E100E000ED00E00000000810B5034B1B78584300F0BEF810BDC046D000000801BEFEE770B50D00044C18220100200000F039FCCD
:40170000A5610020FFF7F2FFF8050008054B802212069A649B6C002B01DB002000E002487047C0460000274003004600054B8022120198585B68FF221A4202D08023DB0243
:401740001843704700002640FEE7C04610B50A4B0268DA6142681A6282685A62C2689A620269DA6242691A6382695A63C2699A63FFF7EAFF10BDC046F8050008F0B54746CD
:4017800080B4002801D0192300E064238B429B415B42304D2C682268A826A45BA41822680327BA433B401A4322602C682268A45BA2181668284CA046264016602C68266837
:4017C000AA229446A25A96193268BA43134333602A6813686546525BD3181A68444614401C60002805D010291BD921291BD8012024E0184B1B6855229A5C914215D95622D4
:401800009A5C914213D957229A5C914211D958229A5C91420FD959229B5C99420DD804200CE000200AE0022008E0002006E0012004E0022002E0032000E00520054A126846
:40184000526813680F218B430343136004BC9046F0BDC04608080008FFFCFFFF000000000230800803D001300238FCD1C046C0467047EFF3108072B6704780F31088704787
:4018800010B5B0235B059B899BB2002B04D0B0235B059B899BB201E080235B0080225200934215D1184C23681968683A9B58C9180B680F208343963A13430B6021680C68B2
:4018C0009C23CB58E318196881430A431A6019E00D4C2368196898229B58C918B02040050A4BC2580A4B13400A681343C022920013430B60226811689C23D358CB18054ACB
:4019000082581A6010BDC0460808000848180000FFFCFFFF4418000030B5B0235B059B899BB2002B04D0B0235B059B899BB201E080235B0080225200934215D1184C23680A
:401940001968683A9B58C9180B680F208343953A13430B6021680C689C23CB58E318196881430A431A6019E00D4D2B68196898229B58C918B0246405C12040012258094B70
:4019800013400A681343C022920013430B602A6811689C23D358CB1822581A6030BDC04608080008FFFCFFFFB0235B059B899BB2002B04D0B0235B059B899BB201E080233C
:4019C0005B008022520093420DD1104B1B681A6898215B58D21811680D4B0B40C021C9010B43136011E0094B1B68196898229B58C918084BB0225205D258074B13400A6813
:401A00001343C022920013430B60704708080008FF8FFFFF18180000FFFCFFFF30B5B0235B059B899BB2002B04D0B0235B059B899BB201E080235B008022520093420DD1E5
:401A4000134B1B681A6898215B58D2181168114B0B408021C9010B43136018E00C4D2B68196898229B58C918B02464050A4822580A4B13400A681343C022920013430B60C0
:401A80002A6811689C23D358CB1822581A6030BD08080008FF8FFFFF4C180000FFFCFFFF10B5B0235B059B899BB2002B04D0B0235B059B899BB201E080235B00802252008D
:401AC000934217D10020FFF7D5FBB0235B055B78002B04D0B0235B055B78DBB200E02123222B03D8002803D1013004E0012002E0002000E0012010BDF8B50700012803D9A4
:401B00003D493E48FFF7F4FDB0235B055B78002B04D0B0235B055B78DBB200E021239DB2B0235B059B899BB2002B04D0B0235B059E89B6B201E0802676000020FFF79AFB9A
:401B4000002814D180235B009E4212D1222D12D82B4B1B685C682B4821582B4B19403B068022520413400B432350002404E0274C02E0264C00E0254C80235B009E4201D1C9
:401B8000222D03D880235B009E4232D01C4B1A683123D35C002B04D1C421FF311C48FFF7A7FD174B1B681D6A80235B009E4203D1002F05D0174A06E0002F03D0164A02E0EF
:401BC000164A00E0164A01212800FFF74FF800280FD10B4B1A68B423D3585B191B68002BF7DBEB681B0E1B06A0221206934200D100242000F8BDC0464C0A00007C2D0010BD
:401C00000808000818F00000FFFFFFFE04004200F02A0010010100300300000C010000300100000CF8B50500012804D9822109012948FFF75DFDFFF733FF002849D0FFF715
:401C400018FE0700002D11D10021244B244AD150E823DB00B0225205D65CF6B20120FFF74BFF041E19D1FFF70BFE16E0B02252051C4BD0581A4B194958501B49565CF6B2E9
:401C80001A481A581F218A4314390A431A500320FFF722FDFFF7C2FE0024002C15D11049124A8B581F20834306401E438E50002D02D1FFF779FE08E00720FFF70DFDFFF787
:401CC0002BFE0020FFF718FF04003800FFF7D5FD00E0074C2000F8BD7C2D0010307F00000000264010180000410700001CFF000003004200042805D10B4A116804230B439F
:401D000013600FE0094B1A681168A023D358CB180006C022920410401860034A136804218B4313607047C04610E000E008080008F0B54F464646C0B483B006000D000092F6
:401D40001F00012B03D95B212B48FFF7D1FC330B03D05C212848FFF7CBFC284B1A686E23D35A9B08013B264A13432A009A4301D16B0003D45D212048FFF7BAFC32006A40EE
:401D8000F0231B011A40141E2FD1FFF772FD01901A4B18686C23C15A83689C4661446E23C35A9A08013A2A40920090466A22825A15402D0A5D432A00424455182A68920A35
:401DC0009202FF231E40009B002B01D00134FF3426437F0280239B001F403E4316432E600198FFF74AFD002000E0064803B00CBC90469946F0BDC046BC2D001008080008C9
:401E0000000F00400100CE000749C02252008B589B009B088020C00503438B508B588020000603438B50704700002640014B18607047C04608080008002243088B4274D378
:401E400003098B425FD3030A8B4244D3030B8B4228D3030C8B420DD3FF22090212BA030C8B4202D31212090265D0030B8B4219D300E0090AC30B8B4201D3CB03C01A524163
:401E8000830B8B4201D38B03C01A5241430B8B4201D34B03C01A5241030B8B4201D30B03C01A5241C30A8B4201D3CB02C01A5241830A8B4201D38B02C01A5241430A8B423A
:401EC00001D34B02C01A5241030A8B4201D30B02C01A5241CDD2C3098B4201D3CB01C01A524183098B4201D38B01C01A524143098B4201D34B01C01A524103098B4201D36E
:401F00000B01C01A5241C3088B4201D3CB00C01A524183088B4201D38B00C01A524143088B4201D34B00C01A5241411A00D20146524110467047FFE701B5002000F006F8FE
:401F400002BDC0460029F7D076E770477047C046002310B59A4203D0CC5CC4540133F9E710BD03008218934202D019700133FAE77047030030B5002A0DD00C7801335D1E68
:401F8000013A2C700131002CF5D19A189A4202D01C700133FAE730BDF8B5C046F8BC08BC9E467047F8B5C046F8BC08BC9E46704703000000010000000100000000000000A7
:401FC00005036000040000000100000000000000010000000604600008000000C0070008B101001073797374656D5F70736F63365F636D30706C75732E630000F4010000D8
:40200000140004010A0009050800000063010000002034407400802034407400002234407400802234407400002434407400802434407400002634407400802634407400AB
:40204000002834407400802834407400002A34407400802A3440740000213440C02100109000000000233440502200109000000000253440E0220010900000000027344087
:402080007023001090000000002934400024001090000000002B3440902400109000000000603440202500107C000000806034409C2500107C000000006134401826001030
:4020C0007C00000080613440942600107C00000000623440102700107C000000806234408C2700107C00000000633440082800107C00000080633440842800107C00000079
:4021000000643440002900107C000000806434407C2900107C00000000653440F82900107C00000080653440742A00107C0000000200000000000000000000006800000016
:402140000000000000000000000000001212000000000000000000000000000000000000000000BA0000000000000000000000000000000000001D1DC70000000000000080
:402180000000000000000000000000000000000000000000000000040000000080000000000000000000000000000000000000000000000000000000000000000000000497
:4021C000000000000000000000000000FFFF6FFFFFFFFFFFFFFFFFFFFFFFFFFFFFFFFFFFFF000000FFFFFFFFFFFFFFFFFFFFFFFFFFFFFFFFFFFFFFFFFF0000000000000099
:402200000000000000000000000000000000000000000000FFFFFFFFFFFFFFFFFFFFFFFF11111111111111111111111111111111111111111111111111111111111111118A
:4022400011111111111111111111101111111111002010500000000000000000FFFFFFF7FFFFFFFFFFFFFFFFFFFFFFFFFFFFFFFFFF000000F1FFFFFFFFFFFFFFFFFFFFFF06
:40228000FFFFFFFFFFFFFFFFFF000000000000001F0F0000000007001F001F000000000F0000F5FFFFFFFFFFFFFFFFFFFFFFEFFF11D11111111111111111111111111111FD
:4022C0001111111111111111111111111111111111211111111111110111111111101111000001890000000000000008FFFFFFFFFFFFFFFFFFFFFFFFFFFFFFFFFFFFFF5FE1
:40230000FF000000FFFFFFFFFFFFFFFFFFFFFFFFFFFFFFFFFFFFFFFFFF0000001F001F001F061F001F00001F001F0C1F0000000000000000FFFFFFFFFFFFFFFFFFFFF5FBC3
:40234000111111111111111111111111111111111111111111111111111111111101111111111111111111111811111111111111000000600000000000000000FFFFFFF0E9
:40238000FFFFFFFFFFFFFFFFFFFFFFFFFFFFFFFFFF000000FFFFFFFFFFFFFFFFFFFFFFFFFFFFFFFFFFFFFFFFFF000000001F1F00001F0E1F1F000000001F1F00F00000006C
:4023C0000000F0F0FFFFFFFFFFFFFFF7FFFFFFFF11111111011101111111111111111111111111111111111111111111111111111111111111111111111111111111111101
:402400000000216500000000000000C0FFFFFFFFFFFFFFFFFFFFFFFFFFFFFFFFFFFFFFFFFF000000FFFFFFFFFFFFFFFFFFFFFFFFFFFFFFFFFFFFFFFFFF0000001F0700005A
:40244000071F000C1F071F07001F1F000000000000000000FFDDFFFFFFFFFFFFFFFFFF3F11111111111111111111111111111111111111111111111111111111111111116E
:40248000111111111111111111111110110111114000000800000000000000206FFF7F7F77FFFFFFFFFFFF5FF7FF0F0F5FFFFFFFF0000000FFFFFFFFFFFFFFFFFFFFFFFF25
:4024C000FFFFFFFFFFFFFFFFFF000000000000000000001F1F07001F0000001F00F0000F05000000FFFFFFFFFFFFFFFFFFFFFFF51111111111113111111111111111111144
:40250000111111111111111111111711111111111111112111411811111D9158111111E100000000000010001F1F1F1F1F1F1F1F1F1F1F1F1F1F1F1F1F1F1F1F1F1F1F1F93
:402540001F1F1F1F1F1F1F1F000007050000000000000000000000000006000000000000FFBFFFFFFFFFFFFFFEFFFFFF11111111111111111111111111111111111111114A
:4025800011111111111111111111111111111111111111111115111111111D1100000000000020101F1F1F1F1F1F1F1F1F1F1F1F1F1F001F1F1F1F1F071F1F161F1F1F1FDB
:4025C0001F1F1F1F000000001F0000000000000000001F00000000060000F076FFFFFFFFFFFFFFFFFDFFFFFF1111111111111110111111111111111111111111111111112C
:4026000011111111111111111111111191511111111D11111E1F711100000000000040001F1F1F1F1F1F1F1F1F1F1F0D1F1F1F1F1F1F0F1F1F1F1F1F1F1F1F1F1F1F1F1FBD
:402640001F00060407000E000000061F000C001F0070050000050000FFFFFFFFFFFFF7FFFFFFF3FF1111111111111111111111111111111111111111111111111D1111118A
:40268000111111110171611E111111111111111D111D011E00000040000000101F1F1F1F1F060F1F1F1F1F1F1F1F1F1F1F1F1F1F1F1F1F1F1F081F1F1F1F1F1F000F0800FD
:4026C000000F1F0F0D00000000001F007650400000007070FFFFFFFFFFFFFFFFFFFFFFFF1111111141111111111111111111111111111111111111111101111111D1111197
:402700001101111111E111B11F1111111E1D141D00000000000000401F1F1F1F1F1F011F1F1F1F1F1F1F1F1F1F1F1F1F1F1F1F1F1F1F1F1F1F1F1F1F001F00001F00001F94
:40274000001F1F00001F1F000000000000000000FFFFFFFFFFFFBFFFFBFFFFFF11111117E111111111111111111111111111111111111111111111111111111E11111111E6
:40278000111111111F111111E11E111E00000000000000321F1F1F1F1F1F1F1F1F1F1F1F1F1F1F1F1F1F1F1F1F1F1F1F1F1F1F1F1F1F1F1F0000070000000607061F00000A
:4027C000000004070065000F0F000000FFFFFFFFFFFFFFFFFFFFFFFC11111111111111111111111111111111111111111111111111111110111111111110111111D1E11124
:40280000DE11D1111111111100000000000000001F1F1F1F1F1F1F1F1F1F1F1F1F1F1F1F1F1F1F1F1F1F1F1F1F1F1F1F1F1F1F1F00000000000000000000000000000000A3
:402840000000000000000000FFFFFFFFFFFFFFFFFFFFFFFF111111111111111111111111111111111111111111111111111111111111111111111111111111111111111178
:402880001111111100000000000000001F1F1F0A1F1F1F1F071F1F1F1F1F1F1F1F1F1F1F1F1F1F1F1F1F1F1F1F1F1F1F00000000061F000000001F000700010000000000D5
:4028C00000007FFFFFFFFFFFFFFFFFFFFFFFF7FF111111111111111111111D11011111111111111111111111111111111411111111111E111D111111111111111111D00177
:4029000000000000000002801F1F1F1F1F021F1F1F1F1F1F1F1F1F1F1F1F1F1F1F1F1F1F1F1F071F1F1F1F1F0E001F0000001F00070C0001001F1F040000000000000000C8
:40294000FFFFFFFDFFFFDFFFFFFFFF6D1111111111111811111111111111111111111111111011111111111C1111111111111F1111111111111111111111111000002000A9
:40298000000000801F1F071F1F1F1F1F1F1F1F1F1F1F1F1F1F1F1F1F1F1F1F1F1F1F1F1F1F1F1F1F001F1F00001F001F1F070D0000070C00F0000F000000F0F0FFFFFFFF32
:4029C000FFFBFFFFFFFFFF3F1111111E11111111111111111111111111111111111111111111111141111111D11111E11D11111D11E111E111111D110000000000000000E2
:402A00001F1F1F1F1F1F1F1F1F1F1F1F1F1F1F1F1F1F1F1F1F1F1F1F1F1F1F1F1F1F1F1F0E000000000F00000C000D0000080E000000000000000000FFFFFFFFFFFFFFFF72
:402A4000FFFFFFFF1111111111111111111111111111111111111111111111111111111111111111111111F111111111111111111111111100000000000000011F1F1F1FCD
:402A80001F1F1F071F1F1F1F1F1F1F051F1F1F171F1F1F1F1F1F1F1F1F1F1F1F0000000000070D00000000000000001F0000000600600000FFFFFFFFFFFFFFFFFFFFFFFF5F
:402AC00011111111D4111111111111111111111111111111111111111111111111111111E111111111E11E11151111111E19111147656E6572617465645F536F75726365BE
:402B00005C50536F43365C70646C5C647269766572732F7065726970686572616C2F6970632F63795F6970635F6472762E68000047656E6572617465645F536F75726365AB
:402B40005C50536F43365C70646C5C647269766572735C7065726970686572616C5C6770696F5C63795F6770696F2E630000000047656E6572617465645F536F75726365AE
:402B80005C50536F43365C70646C5C647269766572735C7065726970686572616C5C6770696F5C63795F6770696F2E680000000047656E6572617465645F536F7572636569
:402BC0005C50536F43365C70646C5C647269766572735C7065726970686572616C5C6970635C63795F6970635F6472762E68000047656E6572617465645F536F7572636564
:402C00005C50536F43365C70646C5C647269766572735C7065726970686572616C5C6970635C63795F6970635F6472762E63000047656E6572617465645F536F7572636528
:402C40005C50536F43365C70646C5C647269766572735C7065726970686572616C5C6970635C63795F6970635F706970652E630047656E6572617465645F536F7572636586
:402C80005C50536F43365C70646C5C647269766572735C7065726970686572616C5C70726F745C63795F70726F742E630000000047656E6572617465645F536F7572636541
:402CC0005C50536F43365C70646C5C647269766572735C7065726970686572616C5C737973636C6B5C63795F737973636C6B2E630000000047656E6572617465645F536F08
:402D0000757263655C50536F43365C70646C5C647269766572735C7065726970686572616C5C737973636C6B5C63795F737973636C6B2E680000000047656E657261746598
:402D4000645F536F757263655C50536F43365C70646C5C647269766572735C7065726970686572616C5C737973696E745C63795F737973696E742E630000000047656E6562
:402D800072617465645F536F757263655C50536F43365C70646C5C647269766572735C7065726970686572616C5C737973706D5C63795F737973706D2E63000047656E6552
:402DC00072617465645F536F757263655C50536F43365C70646C5C647269766572735C7065726970686572616C5C747269676D75785C63795F747269676D75782E630000E9
:402E00000000204000002440000000400000000000002340000030400000314000009F40000022400000104002020202020202020210101D800017007500FF030602063618
:402E400004102000000000007FC0000000040000000000000019324B647D00804000080B100000000000FF012002001F00800004FF081018001000140018001C4044484C1D
:402E800050000000081000000800000004000000041000000012000004210000002100000016000040114002C41300138013A013200000001C000000000021400000254057
:402EC000000001400000344000002440000031400000324000001F410000234000001140010101010101010101101010800019005500F0000501053B04101C010100000033
:402F00000FC000000004000001010101011D3A57789600082000101208000000001F00000010000F002000023F06080E00080009000A000B24282C303400000010000000DE
:402F40009000000088000000080000008000000004F0000000F00000400200002005A000D00100018001A0012000000010000000000000000000001000000008C0000000CA
:402F8000942F0010C00000083805000034060008D801000000127A0000093D0000093D0000093D0004000000A00F00000000D007E9000010C10000100000000010B50004A3
:402FC000400B27D0144B1A68146AB023D15ACA00531AE3181B68002BF4DA3E220F4B1A600F4A104B1A60104B0621A322D20099500E4A98509B58084B1A68106AB023D15AA0
:40300000CA00531AC31800225A60084B064AD358002BFADA10BDC04608080008040126401E1F000008012640000026401C05000010B54378FF2B20D100F018FA04000F4B51
:403040001A683123D35C042B04D8C421FF310C4800F024FA094B1A68116AB023D35A9B00CB18DB685A68116801230B4313601368DB07FCD4200000F019FA10BD0808000862
:40308000F02A0010F0B585B001900291544B1A683123D35C002B04D1C421FF31514800F0FDF94F4B1B681E6AB4229A58971950229B5C002B77D000F0E1F9050003283CD1B1
:4030C000474B1A683123D35C062B04D8C421FF31444800F0E3F9424B1968B023CB5A5A00D21853000A6A94466344B4228A58D3181B68002B23DB002000F0C8F93A4B9842AE
:403100001FD03A4B1A6900230021012000F0A6F9002803D0364C17E0013400E00024002000F0B4F9304B984202D0324B9C42F3D9304B9C4207D92E4C06E0002404E02C4CD3
:4031400002E02B4C00E00024002C46D100F08EF90390294B294AD358002B13DA234A0121300000F0ABF900280ED10298FFF726FF019B002B0AD03B68002BFCDB00F05EF9DF
:40318000040004E01A4C02E0194C00E01C4C032D05D10121002000F059F90028F9D1039800F084F919E000F061F905000F4A0121300000F083F9002809D1019B002B08D0AE
:4031C0003B68002BFCDB00F039F9040002E0084C00E00B4C280000F069F9200005B0F0BD08080008F02A001001018800E007000805005200EF4902001C05000000002640C8
:4032000001005000F0B54F464646C0B4824B1A685468B0235B055B78002B04D0B0235B055B78DBB200E02123212B67D1B023D15ACB005B1A116A8C46634419680029F5DA0D
:40324000DD6802212943D960B023D15ACB005B1A116A8C466344D968C9073ED5D9680904090C8C4684271168D559A84641440968090A0904FF26360431400D00882611685C
:40328000894691598846C14449460968090A0906294365462943D9601168D359C9180A685E4B98461A4090252D012A430A605A4B99461A6813689C4692596244136841461B
:4032C00019400B002B4313604B461A681568D15969180B689359EB181B684F4B1A68B021555AEB005B1B156AAC46634400255D60156A515ACA00531AEB185B68484A11693F
:4033000004230B431361012801D030BF00E020BF414B1A68B023D15ACB005B1A116A8C46634419680029F3DAB02149054978002904D0B02149054978C9B200E021212129A1
:4033400032D1D968C90722D510688421525880180468324A1440DB681B0C1B02FF2109020B40234303602C4B19688823C8580B689C46604403681A400D6AB023CC5AE1000F
:403380000B1BEB18DB681B0E1B021A430260224B1A68106AB023D15ACA00531AC318DA6802218A43DA6028E086235B00E358002B23D11C4807681C4BA321C9005E581B4A6F
:4033C000904615681A4A0260062058503E21424611600631174A9950164B134AD358002BFADA154A86235B00E2500E4B1F60A323DB000D4AD6500D4B1D60074B1A68106A77
:40340000B023D15ACA00531AC31800225A600CBC90469946F0BDC04608080008FF00FFFF00ED00E00801264000002640040126401E1F00001C050000AAAAAAAA01B4024849
:40344000844601BC604700BFA10A001001B40248844601BC604700BFF90D001001B40248844601BC604700BF6910001001B40248844601BC604700BF7318001001B40248A7
:40348000844601BC604700BF2904001001B40248844601BC604700BF850E001001B40248844601BC604700BFF116001001B40248844601BC604700BF7B18001001B40248C2
:4034C000844601BC604700BF6D0C00100000000000000000000000000000000000000000000000000000000000000000000000000000000000000000000000000000000056
:40350000000000000000000000000000000000000000000000000000000000000000000000000000000000000000000000000000000000000000000000000000000000008B
:40354000000000000000000000000000000000000000000000000000000000000000000000000000000000000000000000000000000000000000000000000000000000004B
:40358000000000000000000000000000000000000000000000000000000000000000000000000000000000000000000000000000000000000000000000000000000000000B
:4035C00000000000000000000000000000000000000000000000000000000000000000000000000000000000000000000000000000000000000000000000000000000000CB
:020000041008E2
:4000000000780408EB0208100D00000051030810510308105103081051030810000000000000000000000000000000004D0308104D030810000000004D0308104D030810DA
:400040004D0308104D0308104D0308104D0308104D0308104D0308104D0308104D0308104D0308104D0308104D0308104D0308104D0308104D0308104D0308104D03081000
:400080004D0308104D0308104D0308104D0308104D0308104D0308104D0308104D0308104D0308104D0308104D0308104D0308104D0308104D0308104D0308104D030810C0
:4000C0004D0308104D0308104D0308104D0308104D0308104D0308104D0308104D0308104D0308104D0308104D0308104D0308104D0308104D0308104D0308104D03081080
:400100004D0308104D0308104D0308104D0308104D0308104D0308104D0308104D0308104D0308104D0308104D0308104D0308104D0308104D0308104D0308104D0308103F
:400140004D0308104D0308104D0308104D0308104D0308104D0308104D0308104D0308104D0308104D0308104D0308104D0308104D0308104D0308104D0308104D030810FF
:400180004D0308104D0308104D0308104D0308104D0308104D0308104D0308104D0308104D0308104D0308104D0308104D0308104D0308104D0308104D0308104D030810BF
:4001C0004D0308104D0308104D0308104D0308104D0308104D0308104D0308104D0308104D0308104D0308104D0308104D0308104D0308104D0308104D0308104D0308107F
:400200004D0308104D0308104D0308104D0308104D0308104D0308104D0308104D0308104D0308104D0308104D0308104D0308104D0308104D0308104D0308104D0308103E
:400240004D0308104D0308104D0308104D0308104D0308104D0308104D0308104D0308104D0308104D0308104D0308104D0308104D0308104D0308104D0308104D030810FE
:400280004D0308104D0308104D03081010B5054C237833B9044B13B10448AFF300800123237010BDE448020800000000E8290810084B10B51BB108490848AFF3008008480E
:4002C000036803B910BD074B002BFBD0BDE81040184700BF00000000E8480208E8290810B4420208000000007047FFF7FDFF72B6104C114DAC4209DA21686268A368043B53
:40030000A2BFC858D050FAE70C34F3E70B490C4A00209142BCBF41F8040BFAE709480A490860BFF34F8F00F073F900F04DF900F05FF8FEE7EC290810042A0810E4480208DD
:40034000A84B02080040020808ED00E0FEE7FEE700B504207146084202D0EFF3098001E0EFF30880043001F0A7FEFEE710B584B0184C1949204600F05DFB009400218DF8DF
:400380000410032302938DF80C106A46134800F089FC134B6360134BA360134B1B6893F8333023B940F2FA51104801F075FE0E4B1B68B3F85A3003F1804303F520131A6872
:4003C00042F000421A60054A136843F00043136004B010BD8C4A0208102508100000284080011D4140026640A44B02084823081008B562B6FFF7BAFF00F0A8F900F084F981
:4004000000F0C6F900F052F900F0E4F900F022F9064C0225A5604FF47A7001F019FE65604FF47A7001F014FEF2E700BF8000324008B5012001F05CF808BD00BF704700BFAB
:400440005A4AD2F8803303F00F0303F1D00152F8212012F0070202D0042A02D00FE0544911E003F1C002514951F8222002F01F02112A06D0132A04D04FF4FA4103E04D49A5
:4004800001E04FF400418BBB484BD3F8902502F00100D3F88825C2F30172D3F8883513F0405F07D0414BD3F88835C3F30173012B02D102E0012300E0002303B108B9032A02
:4004C00046D13A48D0F88025C2F31103D0F88425C2F30C02D0F88005C0F300600130B1FBF2F202FB03F2B2FBF0F131E0012B2FD12E4BD3F8402602F00100D3F80026C2F3D8
:400500000172D3F8003613F0405F07D0274BD3F80036C3F30173012B02D102E0012300E0002303B108B9032A12D12048D0F8002602F07F02D0F80036C3F30423D0F8000632
:40054000C0F3044002FB01F2B2FBF3F2B2FBF0F1164BD3F88033C3F3011321FA03F216490A601648D0F89030C3F3072301330069000E0130B2FBF0F04860B2FBF3F38B609D
:40058000CB6003F5742202F23F220D48A0FB0202C2F387420A7403F2E7330A4AA2FB03239B094B61DB038B61704700BF0000264000127A0000366E018C42020800002140B7
:4005C00083DE1B43D34D621008B50D4801F08EFEFFF734FFFFF734FF00221146042000F04FFD084800F0E2FD074B1B6893F8513013B1064800F04AFE00F08CFC08BD00BFAA
:400600003029081000490208A44B02088423081008B501F0AEFD074AD2F8883043F47003C2F88830BFF34F8FBFF36F8F01F0A5FD08BD00BF00ED00E038B50546044C002129
:40064000204601F06BF8A968204600F067FF38BD00001D4108B5074B5B6813F4802F04D00121044801F0A2F808BD0021014801F09DF808BD00001D4108B5084B1B7963B9B3
:400680000749084801F0AAFC044B5B792BB90122024B5A710448FFF7CFFF08BD804A0208D9060810B82308100424081008B5084B1B7913F0010F06D1FFF7DEFF044A1379B3
:4006C00043F001031371034801F060F808BD00BF804A020800001D4110B5094BD3F81042072C04D940F23161064801F0D5FC044BC3F81042D3F81022D3F8103210BD00BFE9
:4007000000001D41C823081008B50C4B1B783BB90B4A01210B4800F08FF80122074B1A700848036843F0004303604FF40063064A1278012100F044F908BD00BF864A0208BC
:400740008C24081000001041A842020808B50C4B1B783BB90B4A02210B4800F06DF80122074B1A700848036843F0004303604FF40063064A1278022100F022F908BD00BFEC
:40078000874A02089C24081000001041A942020808B5084B1B783BB9074A0021074801F0EFFC0122034B1A70044B01229A609A6108BD00BF884A0208AC24081000003840EA
:4007C00008B50249024801F071FB08BD0C4B02080000664008B5114B1B785BB9104A1149114801F03FF91149114801F0F7FB01220A4B1A700E4BB3F90030002B08DB59094B
:4008000003F01F03012202FA03F30A4A42F82130054A136843F00043136008BDA54A02080C4B02084025081000006640C1070810C023081000E100E070B50E461446054600
:4008400020B94FF489715C4801F026FC24B940F21311594801F020FC002D00F0A780002C00F0A680731EDBB2022B04D94FF48F71514801F011FC23683BB1B3F1804F04D084
:4008800040F21F114C4801F007FC2379032B04D94FF49071484801F0FFFB637943B1082B06D0102B04D040F22111434801F0F4FBE3883BB1B3F5006F04D04FF491713E4824
:4008C00001F0EAFB23896BB1B3F5807F0AD0B3F5007F07D0B3F5407F04D040F22311364801F0DAFBA37A33B1802B04D04FF49271314801F0D1FBE37A33B1402B04D040F248
:4009000025112D4801F0C8FB237B33B1202B04D04FF49371284801F0BFFB23682B60227961790A43E3881A4323891A43A37A1A43E37A1A43237B134311B94FF4805200E0C5
:4009400000221343012E01D0032E14D16B606279082A01D1032200E00122C5F8082FAA6A617B09B1012100E000210A43AA622A6A42F001022A62023EF6B2012E1AD8AB6094
:400980006379082B01D1032300E00123C5F8143FAB6A627B0AB1022200E000221343AB622B6A43F002032B62002070BD034870BD024870BD002070BD8025081001002E0017
:4009C000F8B507460C4616461D464B1EDBB2022B04D940F2F921164801F05EFB032E04D940F2FA21124801F057FB3DB1B5F5006F04D040F2FB210E4801F04EFB012C01D049
:400A0000032C07D17B6823F4006323F0070333432B437B60023CE4B2012C07D8BB6823F4006323F007031E433543BD60F8BD00BF80250810002800F0248138B50546002997
:400A400000F021810C460B78032B03D95721914801F022FB6378032B03D958218D4801F01BFBA378032B03D959218A4801F014FB2379032B03D95A21864801F00DFBA379F7
:400A8000012B03D95B21834801F006FBE379012B03D95C217F4801F0FFFAE378012B03D95D217C4801F0F8FA6379022B03D95E21784801F0F1FA237A032B03D95F217548F7
:400AC00001F0EAFA237803F003016278930003F00C030B43A278120102F03002134322799201D2B21343A279920602F080621343E279D20602F000621343E278120602F005
:400B0000807213436279120702F040521343227A43EA82732B60E3686B602369AB60237A032B00F2B280DFE803F002063388E36AEB60002038BD636903F50063B3F5805FE2
:400B400003D37821534801F0A7FAA36903F50063B3F5805F03D379214E4801F09DFAE369013BFF2B03D97A214A4801F095FA6369C3F30B02A369484901EA03331A43E3692C
:400B8000013B42EA0363EB60E36A2B61002038BD636903F50063B3F5805F03D387213D4801F07AFAA36903F50063B3F5805F03D38821384801F070FAE369013BFF2B03D942
:400BC0008921344801F068FA236A03F50063B3F5805F03D38A212F4801F05EFA636A03F50063B3F5805F03D38B212A4801F054FAA36A013BFF2B03D98C21264801F04CFA49
:400C00006269C2F30B01A269234B03EA02320A43E169013942EA0162EA60226AC2F30B02616A03EA01331343A26A013A43EA02632B61E36A6B61002038BD184B1B6893F850
:400C40002A30012B23D9636903F50063B3F5805F03D3A1210F4801F01FFAE369013BFF2B03D9A2210B4801F017FA6369C3F30B03E269013A43EA0263EB60E36A2B610020B9
:400C800038BD07487047064838BD054838BD044838BD00BFBC25081000F0FF00A44B020801004E00002860D0F8B50346002A5ED0106800285DD03148006890F833008842AB
:400CC00059D91E4614460D469368032B03D9EF212B4801F0E1F92768284B1B6893F833309D4204D340F2E151264801F0D5F9234B1A68B2F85A309919B2F85C3005FB031382
:400D0000DF60B2F85A10B2F85C30314405FB03118B681B0C1B048B60B2F85A301E44B2F85C1005FB01F123792BB192F85F70012303FA07F700E00027A06892F85E50A840C0
:400D40000322AA4000EA02033B43227B12B14FF0004200E000221343627B0AB1042200E00022134373500020F8BD074870470648F8BD0548F8BD0448F8BD00BFA44B02084C
:400D8000BC250810F825081001004E001F4B98422DD00CD840282ED003D8E8B1102828D02FE0802829D0B0F5807F28D029E0184B984228D006D8B0F1204F0DD0154B9842F8
:400DC00012D01EE0144B98420AD00133984209D0023B984215D101E0002070470F4870470F4870470F4870474FF4A0007047074870470D4870470D4870470D48704703482B
:400E000070470C4870474FF4A400704706005200010000F0090000A0040000F0010052000200520003005200010050000200500005005200FF00520038B5124B1B6893F8CD
:400E40003130012B04D840F2C3110F4801F024F90C4B1D682A6AB5F8B03013442C46D5F8B420D358002B0BDB084B1868FFF78EFF6B6801229A6063689B68002BFBD138BDFB
:400E8000034838BDA44B020834260810A84A0208020050001A4B186128B102230370FF23437000234380174B1B6893F850202AB300B583B0B3F93830ADF8003000230193EA
:400EC0001149684601F08AF8BDF90030002B08DB590903F01F03012202FA03F30B4A42F82130084B1B6893F8513023B102220849012000F077FA03B05DF804FB704700BFED
:400F0000A84A0208A44B02082543020800E100E0DD43020808B50248FFF7BCFF08BD00BFBC4A020838B50B4B1B68D3F8B4301B58002B0DDA0D4604460B0C1B0423B140F240
:400F4000D521054801F0A8F8A9B26160002038BD024838BDA44B02087426081001008A0038B50368002B01DA002300E0094B73B90D460446C2600B0C1B0423B140F2BB213F
:400F8000054801F089F8A9B2A160002038BD014838BD00BF01008A007426081038B504460D4619B99921084801F076F8074B1B68D3F8B4301B59002B03DAE3682B6000200C
:400FC00038BD034838BD00BFB4260810A44B020801008A00254B1B6893F8313083423AD900293AD00B6813F01F0F38D170B50D4604461E4B1B6893F83130984204D340F273
:40100000C3111B4801F048F8184B1B68186AB3F8B03004FB0304174E34602A68D2080021686801F069F900212046FFF77BFF346825B940F293310E4801F02EF82A46002141
:401040002046FFF78DFF60B900210A4B1868FFF769FF40B970BD084870470748704706487047064870BD054870BD00BFA44B020874260810C04A020803018A0001018A0056
:4010800010B504461346B2B9A9B9124B1B6893F83130984204D340F2C3110F4800F0FCFF0C4B1B681A6AB3F8B03004FB03240B4B1C60002010BD43B149B1084A5160936084
:4010C000111D2046FFF786FF10BD054810BD044810BD00BFA44B020874260810C04A020803018A002DE9F0411B4B1B68DC68236883422CD90D464609A0EB4610012303FA68
:4011000000F819B901F035F8074600E00027124B18680368002B01DA002300E00F4B83B9626852F8263018EA030F05D023EA080342F82630002400E0094C0021FFF7F2FE31
:4011400000E0084C25B9384601F017F800E0064C2046BDE8F08100BFC04A020801008A00020188000301880004018A000B4B1B68DB681A6882420CD94109A0EB411001229D
:4011800002FA00F05B6853F82130184203D004487047044870470448704700BFC04A02080101880004018A0000018800024B1B680BB9014B18607047CC4A02082DE9F843B9
:4011C0000446884691461D46089F2C4B1B681BB9B5212B4800F060FF284B1B682C2000FB04F01C18EEB21E50C5F3072363602D0CA560244B1B6893F831309E4204D340F273
:40120000C311214800F048FF1E4B1B68196AB3F8B02006FB02162661666893F832309E4204D340F2DF11184800F036FF154B1B681D6A803605EB46156561A668330C1B04FA
:4012400023B14FF4FF71104800F026FF330C1B0423B140F2FF110C4800F01EFFB3B243EA0646AE60C4F81C90C4F820800023A36117B1B7F90030A381BDE8F883CC4A0208C2
:40128000F4260810A44B020874260810F0B58FB0044618B95221274800F0FEFEA369072B03D95621234800F0F7FEE36A1BB95821204800F0F1FE236B1BB959211D4800F091
:4012C000EBFE07AD04F114060FCE0FC537682F6002AD26460FCE0FC533682B60164B1B68B3F93620079B1344ADF83030089B0D93A26AE16A0CAD00953B460A98FFF75EFF2F
:4013000000210091069B0A460598FFF757FF216B284600F063FEBDF93030002B08DB590903F01F03012202FA03F3044A42F821300FB0F0BDF4260810A44B020800E100E0F5
:40134000F8B506460F461D4614461AB9FD211F4800F0A2FE1E4B1B681BB9FE211B4800F09BFE1B4B1B682C2101FB063001FB07314B68012202FA03F31B04466802FA06F686
:401380000269EAB18F69EFB91268002A01DA002200E0104AC2B92288134323600369DC6001238B614D620469330C1B0423B140F2BB21094800F070FEB2B2A2600020F8BDB0
:4013C0000648F8BD0648F8BD0548F8BDF4260810CC4A020801008A007426081004028A0007028A00F8B505460F4616460E4B1B6823B94FF4AF710D4800F04EFE0A4B1B6806
:401400002C2404FB0534236A23B94FF4B171074800F042FEE369B34204D9236A43F826700020F8BD0248F8BDCC4A0208F42608100A028A0070B582B000230193044620B96E
:4014400040F2D111284800F027FE236923B94FF4E971254800F020FE636923B940F2D311214800F019FE236A23B94FF4EA711E4800F012FE6369DD682A0C20D012041A60F1
:401480001B682069194B1B68D3F8B430C358002B15DA01A9FFF782FD60B9019803681E0CDBB2E269934206D2226A52F8233013B1984700E0002631462069FFF733FDADB213
:4014C00075B16369ADB21D601B68636A1BB198470023636202E0A36A03B198470023A36163691B6802B070BDF4260810A44B020810B50446074B1B6823B940F2B111064837
:4015000000F0CAFD034B1B682C2000FB0430FFF791FF10BDCC4A0208F42608102DE9F8430E46074618B93A21754800F0B5FD1EB93B21734800F0B0FD002F00F0DA80002E54
:4015400000F0DA8032686F4B13401BB14A216C4800F0A2FD72686C4B13401BB14B21684800F09AFDB36813F0FC2F03D04C21644800F092FDF36813F0FC2F03D04D21604887
:4015800000F08AFD337D032B03D94E215C4800F083FDB369B3F5803F03D34F21584800F07BFDF36D072B03D95021554800F074FD336EB3F5803F03D35121514800F06CFD87
:4015C000736EB3F5803F03D352214D4800F064FD736843F000437B60B3683B61F3687B613369BB61337D9B07FB61B3693B62336803F46068736803F00409002435E0254662
:40160000A31D06EB83035A68404B13401BB163213B4800F041FDAB1D06EB8303596805F1200247F822105B6813F0012F0BD1B8F5606F08D1B9F1000F05D04FF47842344B18
:4016400023F8152003E00022314B23F81520726F02F11C7303F58033520093FBF2F31BB22C4A42F825300134E4B20F2CC7D9F36DC7F81832F36DC7F81032336EC7F828327A
:40168000336EC7F82032736EC7F83832736EC7F8303296F87030DBB1B36EB3F1804F03D38221174800F0F8FCF36E23F44F0323F0FF031BB18321124800F0EEFC6FF04043FD
:4016C000C7F80433B36EC7F80033F36EC7F84433D7F8003F3F2B02D0D7F8003F13B90B23C7F8003F336843F400133B600020BDE8F8830948BDE8F8830748BDE8F88300BF9B
:40170000342708100811DF0001FE302088CA887E444B0208644B02080100060038B50D46044618B9B521174800F0B6FC2CB30023236063604FF0031222616261A361E361E2
:40174000236206E003F12002002144F822100133DBB20F2BF6D90023C4F81832C4F82832C4F838325DB16FF04043C4F804330020C4F84003C4F8440338BD034838BD0020D0
:4017800038BD00BF342708100100060008B50368002B0ADBD0F8A032002BFBDB036843F000430360022000F06BFC08BD38B505460C46012904D940F27111064800F06CFCBB
:4017C000012C04D16B6843F480336B6038BD01236B6238BD3427081010B4D0F8003303F00F03072B06D900230DE0D0F84043CC54013300E000239342F7D306E0D0F84043BA
:4018000021F8134001339342F8D35DF8044B704710B51446D0F80833C3F308039A4200D31C462246FFF7D8FF204610BD10B4D0F8003203F00F03072B06D900230DE0CC5CA5
:40184000C0F84042013300E000239342F7D306E031F81340C0F8404201339342F8D35DF8044B704710B51446036813F4006F01D0802200E04022D0F80832C3F30803D31A28
:40188000A34200D81C462246FFF7D0FF204610BD2DE9F84305460C46036813F4006F02D04FF0800801E04FF04008D5F8007207F00F07A26A012A19D9D4F82490E262561E2C
:4018C000B9F1000F00D026B940F27351254800F0E3FB324649462846FFF7C4FFA36A1B1AA362072F00D9400048446062D5F80832C3F30803984533D0A36A012B30D1002338
:40190000A362072F02D8636A1E7801E0636A1E8800F02FFCC5F840624FF40073C5F8803FD5F8803F00F029FCD5F8883F23F4007222F0010242F4007623F4EE6323F003032F
:4019400023B140F23641084800F0A6FBC5F8886F236843F002032360236B0BB101209847BDE8F88370270810B02708102DE9F04105460C46036813F4006F01D0802600E0EB
:4019800040267608A769D4F81C8017B1B8F1000F04D14FF49961314800F07EFB424639462846FFF735FF236A03442362E3691B1AE36173BBA368FBB1E3689E4201D8013E72
:4019C00000E05E1E2B6813F4006F01D0802300E040239E4204D34FF42371214800F05CFBD5F8043323F0FF03F6B21E43C5F804630123C5F8C83F02E00023C5F8C83F6368CB
:401A000023F001036360236B33B304209847BDE8F081A169D5F8002302F00F02072A00D940000844A0619E4216D95C1E2B6813F4006F01D0802300E040239C4204D34FF4AA
:401A40002371074800F028FBD5F8043323F0FF02E3B21343C5F80433BDE8F08170270810B0270810002800F0A48170B50546002900F0A18116460C460B78022B03D93F2143
:401A8000A24800F009FB637B023BDBB2062B03D940219E4800F000FBA37B3BB1022B05D0032B03D04121994800F0F6FA94F82130012B03D94221954800F0EEFA94F8283050
:401AC000012B03D94321914800F0E6FA2378012B06D86368083B082B94BF0023012307E0A37F2BB16368013B062B94BF002301231BB14521854800F0CFFAA368053B042B68
:401B000003D94621814800F0C7FA6369FF2B03D947217E4800F0C0FAA369FF2B03D948217A4800F0B9FAA37C6BB1237833B9A368092B05D1A37B2BB1012304E0012302E07F
:401B4000012300E000231BB14A21704800F0A4FA636B23F4366323F00D031BB14C216B4800F09AFAE36B23F4EE6323F003031BB14D21664800F090FA2378022B01D1A37FC3
:401B800013B16268013A00E00022237F13B14FF4803100E00021A368082B02D84FF4006300E000230B4302F00F02134343F000732B60226B2B6813F4006F01D0802300E07C
:401BC00040239A4203D36221504800F065FAA26B2B6813F4006F01D0802300E040239A4203D36321494800F057FA626A2B6813F4006F01D0802300E040239A4203D36421CE
:401C0000424800F049FA23781B0603F040732B64637F0BB1402200E00022A37C13B14FF4806300E000231343227C12B14FF4807200E000221343627C12B14FF4007200E06E
:401C400000221A43E36A013B1B0403F470231343627B013A02F007021343A27B120102F030021343AB64237B13B14FF4807200E00022E37B23B92378022B03D1012302E0C6
:401C8000012300E0002313B14FF4007300E000231A43A368013B03F00F031343C5F80033227DA3691B0403F47F031343C5F81033E26AD5F8003303F00F0303339A4201D3C1
:401CC000102A03D97A21114800F0E6F9E37F23B12378012B03D0002302E0002300E0012313B14FF4807200E00022637B013B03F007031A43A37B1B0103F0300313436B641B
:401D0000237B2BB14FF4807203E000BFF42708100022A368013B03F00F0313432278012A02D14FF4803200E000221343C5F8003294F83030C5F8043394F8203013B14FF0C8
:401D4000007200E0002294F82130012B02D14FF0807300E00023134394F82820012A02D14FF4803200E00022134394F8242013432B6594F83830C5F80432636B23F49263F2
:401D800023F002031B051B0DC5F8C83FE36B23F08C035B055B0DC5F8883F76B1002070603060B060F0603062F0623063044B736370BD04487047034870BD002070BD00BF6C
:401DC000EFCDAB000160AA000B694A69934202D34869181A7047CA684869101A184470472DE9F04107460D46036813F4006F02D04FF0800801E04FF040084FEA5808D7F8B5
:401E00000863C6F308062C6926E00134EB689C4200D100246B699C420FD12B6B0BB1082098476B699C4208D10023C7F8C83F0CB1013C13E0EC68013C10E0D7F84023D7F8AC
:401E4000003303F00F03072B02D8AB681A5502E0AB6823F81420013E002ED6D12C61EC6829463846FFF7B0FF201A804519D908B1441E00E000243B6813F4006F01D0802334
:401E800000E040239C4204D34FF42371064800F003F9D7F8040320F0FF03E0B21843C7F80403BDE8F08100BFB027081038B504460D46D0F8003E13F0080F35D0D0F8CC3F38
:401EC00013F448730AD04A681A434A60C0F8C03FD0F8C03F0B6B0BB110209847D4F8CC3F13F4006F09D06B6843F400636B604FF40063C4F8C03FD4F8C03FD4F8CC3F13F06A
:401F0000010F11D0EB6923B129462046FFF72EFD05E0AB681BB129462046FFF761FF0123C4F8C03FD4F8C03FD4F8003E13F0040F2ED0D4F88C3F13F4A0630AD02A681A4371
:401F40002A60C4F8803FD4F8803F2B6B0BB120209847D4F88C3F13F0010F08D029462046FFF796FC0123C4F8803FD4F8803FD4F88C3F13F4007F0BD00022C4F8882F2B6837
:401F800023F001032B60EA622B6B0BB10220984738BD00BF38B50D4B9A680D4B9A420FD10D46044621B940F237110A4800F074F804F11003064A52F8230042F8235038BDCB
:401FC0001030054B53F8200038BD00BF00ED00E000400208342808100000081048B338B504460D464368072B03D93221134800F053F8B4F900306268002B08DB5201D2B2DC
:4020000003F1604303F5614383F8002305E003F00F035201D2B20A49CA540A4B9A680A4B9A4208D12946B4F90000FFF7B3FF002038BD06487047002038BD00BF3428081016
:4020400014ED00E000ED00E0004002080100560010B5044605E0084B186800F081F8A4F50044B4F5004FF6D8044B186800FB04F000F076F810BD00BFA4420208A0420208BA
:4020800008B5034B1B7800FB03F000F069F808BD9C42020801BEFEE738B50D46044C18220146204600F030F9A5610020FFF7F2FF50480208FEE700BF08B50268254BDA613D
:4020C00042681A6282685A62C2689A620269DA6242691A6382695A63C2699A631E4A916AD963D16A1964516A5964516B9964926BDA64F1EE103A13F0900F27D0026A154BFE
:402100001A65426A5A65826A9A65C26ADA65026B1A66426B5A66826B9A66C26BDA66026C1A67426C5A67826C9A67C26CDA67026DC3F88020426DC3F88420826DC3F88820C5
:40214000C26DC3F88C20026EC3F89020FFF7B2FF08BD00BF5048020800ED00E0000000000230800803D001300238FCD100BF00BF7047EFF3108072B6704780F31088704747
:40218000002800F0AC8070B40446002A00F0A98092F828300BB1012500E00025137F0BB1022300E000231D431669B60406F4802645EA060395682D0405F440351D43166800
:4021C000300600F0E0602843136B556B43EA45031B0503F440130343906B43EA8000052E03D1D3681B029BB202E053681B029BB20343081D800123501368062B08D104EB7D
:4022000081130120C3F808013F20C3F828011DE0936843B904EB81130020C3F808013120C3F8280112E0012B08D1506904EB8113C3F808011C20C3F8280107E004EB8113D1
:402240000120C3F808011220C3F82801106A04EB8113C3F80C01506AC3F810015069C3F814019069C3F81801136EB3F1FF3F17D0106C00F00F00966C360206F47066304380
:40228000156D2D0405F470250543906D000380B228431B01DBB2034304EB8110C0F82031D36B03F00303566C360106F030063343D56C2D0205F440752B43506D8001C0B272
:4022C0001843D36D9B0003F00C03034304EB8114C4F82431D36AC4F83831002002E002487047014870BC70470100B600014B1860704700BFA44B020802440346934202D01A
:4023000003F8011BFAE7704710B5034642B111F8014B03F8014B013A002CF7D11A4400E010BD934202D003F8014BFAE710BD0000F8B500BFF8BC08BC9E467047F8B500BF90
:40234000F8BC08BC9E46704747656E6572617465645F536F757263655C50536F43365C70646C5C647269766572732F7065726970686572616C2F646D612F63795F646D61B5
:402380002E6800000300000001000000010000000000000005036000040000000100000000000000010000000604600008000000604A0208310408108A0000000700000010
:4023C0002E0000000700000047656E6572617465645F536F757263655C50536F43365C70646C5C647269766572732F7065726970686572616C2F7361722F63795F736172EB
:402400002E68000000000000010000001424081000000000E3CE20538000029003000200020002000002000E00000000010000000000000000000000000000000000000065
:40244000000000000000000000000000000000000000000000000000000000000000000000000000000000000000000000000000010000000000000000000000000000005B
:40248000000000000000000072060000000000000308000800000000000000000000000003080008000000000000000004000000000000000000000000000000000000007A
:4024C000C700000000800000000000006400000000400000000000000000000000000000000000000200000003000000FFFFFFFF03000000FFFFFFFF03000000FFFFFFFFF2
:4025000003000000FFFFFFFF03000000FFFFFFFF00030100000200000100000000000000000000000000000000000000800000000000000000000000010000008C4A020835
:40254000000000000A0000000800000000020000000000000000000000000000000000000000000000000000000000000B000000000000000000000000000000000000003C
:4025800047656E6572617465645F536F757263655C50536F43365C70646C5C647269766572735C7065726970686572616C5C6374625C63795F6374622E63000047656E65E1
:4025C00072617465645F536F757263655C50536F43365C70646C5C647269766572735C7065726970686572616C5C646D615C63795F646D612E63000047656E657261746582
:40260000645F536F757263655C50536F43365C70646C5C647269766572735C7065726970686572616C5C646D615C63795F646D612E68000047656E6572617465645F536F63
:40264000757263655C50536F43365C70646C5C647269766572732F7065726970686572616C2F6970632F63795F6970635F6472762E68000047656E6572617465645F536F70
:40268000757263655C50536F43365C70646C5C647269766572735C7065726970686572616C5C6970635C63795F6970635F6472762E68000047656E6572617465645F536FA9
:4026C000757263655C50536F43365C70646C5C647269766572735C7065726970686572616C5C6970635C63795F6970635F6472762E63000047656E6572617465645F536F6E
:40270000757263655C50536F43365C70646C5C647269766572735C7065726970686572616C5C6970635C63795F6970635F706970652E630047656E6572617465645F536FCB
:40274000757263655C50536F43365C70646C5C647269766572735C7065726970686572616C5C7361725C63795F7361722E63000047656E6572617465645F536F75726365D5
:402780005C50536F43365C70646C5C647269766572735C7065726970686572616C5C7363625C63795F7363625F756172742E680047656E6572617465645F536F7572636540
:4027C0005C50536F43365C70646C5C647269766572735C7065726970686572616C5C7363625C63795F7363625F636F6D6D6F6E2E6800000047656E6572617465645F536FE2
:40280000757263655C50536F43365C70646C5C647269766572735C7065726970686572616C5C7363625C63795F7363625F756172742E630047656E6572617465645F536FC4
:40284000757263655C50536F43365C70646C5C647269766572735C7065726970686572616C5C737973696E745C63795F737973696E742E63000000000000204000002440A7
:40288000000000400000000000002340000030400000314000009F40000022400000104002020202020202020210101D800017007500FF030602063604102000000000002E
:4028C0007FC0000000040000000000000019324B647D00804000080B100000000000FF012002001F00800004FF081018001000140018001C4044484C50000000081000006F
:402900000800000004000000041000000012000004210000002100000016000040114002C41300138013A013200000001C000000000021400000254000000140000034408F
:4029400000002440000031400000324000001F410000234000001140010101010101010101101010800019005500F0000501053B04101C01010000000FC00000000400009A
:4029800001010101011D3A57789600082000101208000000001F00000010000F002000023F06080E00080009000A000B24282C30340000001000000090000000880000001F
:4029C000080000008000000004F0000000F00000400200002005A000D00100018001A00120000000100000000000000000000810004002088C0200000C2A08108C4202082A
:402A0000C4050000E4480208C402000000127A0000093D0000127A0000127A0008000000401F00000000A00F03030000B10208108D0208100000000080B2C10050B3164B02
:402A40001B681A6AB3F8B030C3EBC303D358002BF5DA3E22114B1A6041F61E7204331A60A3F584730622C3F8182521F07F41C3F81C15D3F81C35084B1A68116AB2F8B0301B
:402A8000C3EBC3030B4400225A60054BD3F81C35002BFADA704700BFA44B02080401264000002640F8B5274B1B6893F83130052B04D840F2C311244800F04AFA214F3A687A
:402AC000166AB2F8B03003EB83031E4452684FF26003D458A4B200F05BFA05463B681968D3F890208A58013C032C27D8032A0CD1164A127812F0FF0F07D10822B260196801
:402B0000D3F890208A58032AF9D01968D3F884208B588858C0F307221B0E581C02FB00000B4B03FB00F00B4B1B680B4AA2FB03239B09B0FBF3F08230FFF77EFF284600F02F
:402B40003FFAF8BDA44B0208342608100B00001640420F008C420208D34D62104378FF2B23D110B500F014FA0446104B1B6893F83130042B04D840F2C3110D4800F0E8F9F9
:402B80000A4B1A68136AB2F8B02003EB8203DB685A68136843F001031360136813F0010FFBD1204600F00CFA10BD7047A44B0208342608102DE9F04707468846554B1B687A
:402BC00093F83130012B04D840F2C311524800F0BFF9504B1B681C6AB3F8B0201444D3F8B420161993F85030002B79D04B4B1B7813F0FF0F02D04FF0000901E04FF0010957
:402C0000B9F1000F38D0434B1B6893F83130052B04D840F2C311404800F09AF93D4B1A68116AB2F8B03003EB83030B44D2F8B420D358002B22DB002000F0B2F9384B9842DE
:402C40001ED00023374A12690121184600F098F918B1354D17E0013500E00025002000F09FF92F4B984202D0304B9D42F3D92F4B9D4207D92C4D06E0002504E02A4D02E0DB
:402C8000294D00E00025002D41D100F081F98246274BD3F81C35002B10DA224A0121204600F086F960B94046FFF7C6FE57B13368002BFCDB00F05CF9054604E01A4D02E067
:402CC000194D00E01B4DB9F1000F05D00121002000F046F90028F9D1504600F071F916E000F056F980460F4A0121204600F060F938B947B13368002BFCDB00F039F905462D
:402D000002E0094D00E00B4D404600F059F92846BDE8F087A44B0208342608100B00001601018800A84A020805005200EF4902000000264001005000F0B47F4B1A685568CA
:402D40004FF0B0535B7813F0FF0F04D04FF0B0535B78DBB200E02123212B55D1116AB2F8B030C3EBC303CC18CB58002BF6DAE36843F00103E360146AB2F8B030C3EBC30365
:402D80001C44E36813F0020F2DD0E3689EB21368D2F884105958090A090401F47F01D2F88870DB591B0A41EA03633343E3601168D2F884208B5823F47F4343F410638B5010
:402DC0005D4A13681C68D3F88810635823F47F4343F41063635013681A68D3F884105158D3F88830D358544B1A68116AB2F8B030C3EBC3030B4400215960116AB2F8B0305E
:402E0000C3EBC3030B445B684B4B19680C68D1F894301C44494A136943F004031361012801D030BF07E020BF454B1B7803B120BF0122434B1A70236803F00303022BE9D0CD
:402E40000A6AB1F8B030C3EBC303D018D358002BF6DA4FF0B0535B7813F0FF0F04D04FF0B0535B78DBB200E02123212B30D1C36813F0020F1FD00C68D1F88410635823F4F5
:402E80007F42C3681B0C1B0203F47F4313436350294B19680C68D1F88800235823F47F420D6AB1F8B030C3EBC3032B44DB681B0E42EA03232350204B1A68136AB2F8B0201B
:402EC000C2EBC2021344DA6822F00102DA6026E0D5F80C311BBB1B490E681B4BD3F818451A4A106841F61E770F600621C3F818153E2111604422C3F81C25134BD3F81C3559
:402F0000002BFADA4FF0AA33C5F80C310D4B1E60A3F58473C3F8184503F582731860064B1A68116AB2F8B030C3EBC3030B4400225A60F0BC704700BFA44B020800ED00E03B
:402F4000D04A020808012640000026400401264001B40248844601BC604700BF9920081001B40248844601BC604700BFE510081001B40248844601BC604700BF390E0810EC
:402F800001B40248844601BC604700BF4113081001B40248844601BC604700BF7321081001B40248844601BC604700BF6D11081001B40248844601BC604700BF610F08102B
:402FC00001B40248844601BC604700BF7B21081000000000000000000000000000000000000000000000000000000000000000000000000000000000000000000000000031
:0200000490303A
:02000000410DB0
:0200000490501A
:0C0000000005E20621002101E226620D4D
:00000001FF